{"contracts/Gateway.sol":{"Gateway":{"abi":[{"inputs":[],"stateMutability":"nonpayable","type":"constructor"},{"anonymous":false,"inputs":[{"indexed":false,"internalType":"uint8","name":"version","type":"uint8"}],"name":"Initialized","type":"event"},{"anonymous":false,"inputs":[{"indexed":true,"internalType":"address","name":"sender","type":"address"},{"indexed":true,"internalType":"address","name":"token","type":"address"},{"indexed":true,"internalType":"uint256","name":"amount","type":"uint256"},{"indexed":false,"internalType":"uint256","name":"protocolFee","type":"uint256"},{"indexed":false,"internalType":"bytes32","name":"orderId","type":"bytes32"},{"indexed":false,"internalType":"uint256","name":"rate","type":"uint256"},{"indexed":false,"internalType":"string","name":"messageHash","type":"string"}],"name":"OrderCreated","type":"event"},{"anonymous":false,"inputs":[{"indexed":false,"internalType":"uint256","name":"fee","type":"uint256"},{"indexed":true,"internalType":"bytes32","name":"orderId","type":"bytes32"}],"name":"OrderRefunded","type":"event"},{"anonymous":false,"inputs":[{"indexed":false,"internalType":"bytes32","name":"splitOrderId","type":"bytes32"},{"indexed":true,"internalType":"bytes32","name":"orderId","type":"bytes32"},{"indexed":true,"internalType":"address","name":"liquidityProvider","type":"address"},{"indexed":false,"internalType":"uint96","name":"settlePercent","type":"uint96"}],"name":"OrderSettled","type":"event"},{"anonymous":false,"inputs":[{"indexed":true,"internalType":"address","name":"previousOwner","type":"address"},{"indexed":true,"internalType":"address","name":"newOwner","type":"address"}],"name":"OwnershipTransferStarted","type":"event"},{"anonymous":false,"inputs":[{"indexed":true,"internalType":"address","name":"previousOwner","type":"address"},{"indexed":true,"internalType":"address","name":"newOwner","type":"address"}],"name":"OwnershipTransferred","type":"event"},{"anonymous":false,"inputs":[{"indexed":false,"internalType":"address","name":"account","type":"address"}],"name":"Paused","type":"event"},{"anonymous":false,"inputs":[{"indexed":true,"internalType":"bytes32","name":"what","type":"bytes32"},{"indexed":true,"internalType":"address","name":"treasuryAddress","type":"address"}],"name":"ProtocolAddressUpdated","type":"event"},{"anonymous":false,"inputs":[{"indexed":false,"internalType":"uint64","name":"protocolFee","type":"uint64"}],"name":"ProtocolFeeUpdated","type":"event"},{"anonymous":false,"inputs":[{"indexed":true,"internalType":"address","name":"sender","type":"address"},{"indexed":true,"internalType":"uint256","name":"amount","type":"uint256"}],"name":"SenderFeeTransferred","type":"event"},{"anonymous":false,"inputs":[{"indexed":true,"internalType":"address","name":"treasuryAddress","type":"address"}],"name":"SetFeeRecipient","type":"event"},{"anonymous":false,"inputs":[{"indexed":true,"internalType":"bytes32","name":"what","type":"bytes32"},{"indexed":true,"internalType":"address","name":"value","type":"address"},{"indexed":false,"internalType":"uint256","name":"status","type":"uint256"}],"name":"SettingManagerBool","type":"event"},{"anonymous":false,"inputs":[{"indexed":false,"internalType":"address","name":"account","type":"address"}],"name":"Unpaused","type":"event"},{"inputs":[],"name":"acceptOwnership","outputs":[],"stateMutability":"nonpayable","type":"function"},{"inputs":[{"internalType":"address","name":"_token","type":"address"},{"internalType":"uint256","name":"_amount","type":"uint256"},{"internalType":"uint96","name":"_rate","type":"uint96"},{"internalType":"address","name":"_senderFeeRecipient","type":"address"},{"internalType":"uint256","name":"_senderFee","type":"uint256"},{"internalType":"address","name":"_refundAddress","type":"address"},{"internalType":"string","name":"messageHash","type":"string"}],"name":"createOrder","outputs":[{"internalType":"bytes32","name":"orderId","type":"bytes32"}],"stateMutability":"nonpayable","type":"function"},{"inputs":[],"name":"getFeeDetails","outputs":[{"internalType":"uint64","name":"","type":"uint64"},{"internalType":"uint256","name":"","type":"uint256"}],"stateMutability":"view","type":"function"},{"inputs":[{"internalType":"bytes32","name":"_orderId","type":"bytes32"}],"name":"getOrderInfo","outputs":[{"components":[{"internalType":"address","name":"sender","type":"address"},{"internalType":"address","name":"token","type":"address"},{"internalType":"address","name":"senderFeeRecipient","type":"address"},{"internalType":"uint256","name":"senderFee","type":"uint256"},{"internalType":"uint256","name":"protocolFee","type":"uint256"},{"internalType":"bool","name":"isFulfilled","type":"bool"},{"internalType":"bool","name":"isRefunded","type":"bool"},{"internalType":"address","name":"refundAddress","type":"address"},{"internalType":"uint96","name":"currentBPS","type":"uint96"},{"internalType":"uint256","name":"amount","type":"uint256"}],"internalType":"struct IGateway.Order","name":"","type":"tuple"}],"stateMutability":"view","type":"function"},{"inputs":[],"name":"initialize","outputs":[],"stateMutability":"nonpayable","type":"function"},{"inputs":[{"internalType":"address","name":"_token","type":"address"}],"name":"isTokenSupported","outputs":[{"internalType":"bool","name":"","type":"bool"}],"stateMutability":"view","type":"function"},{"inputs":[],"name":"owner","outputs":[{"internalType":"address","name":"","type":"address"}],"stateMutability":"view","type":"function"},{"inputs":[],"name":"pause","outputs":[],"stateMutability":"nonpayable","type":"function"},{"inputs":[],"name":"paused","outputs":[{"internalType":"bool","name":"","type":"bool"}],"stateMutability":"view","type":"function"},{"inputs":[],"name":"pendingOwner","outputs":[{"internalType":"address","name":"","type":"address"}],"stateMutability":"view","type":"function"},{"inputs":[{"internalType":"uint256","name":"_fee","type":"uint256"},{"internalType":"bytes32","name":"_orderId","type":"bytes32"}],"name":"refund","outputs":[{"internalType":"bool","name":"","type":"bool"}],"stateMutability":"nonpayable","type":"function"},{"inputs":[],"name":"renounceOwnership","outputs":[],"stateMutability":"nonpayable","type":"function"},{"inputs":[{"internalType":"bytes32","name":"what","type":"bytes32"},{"internalType":"address","name":"value","type":"address"},{"internalType":"uint256","name":"status","type":"uint256"}],"name":"settingManagerBool","outputs":[],"stateMutability":"nonpayable","type":"function"},{"inputs":[{"internalType":"bytes32","name":"_splitOrderId","type":"bytes32"},{"internalType":"bytes32","name":"_orderId","type":"bytes32"},{"internalType":"address","name":"_liquidityProvider","type":"address"},{"internalType":"uint64","name":"_settlePercent","type":"uint64"}],"name":"settle","outputs":[{"internalType":"bool","name":"","type":"bool"}],"stateMutability":"nonpayable","type":"function"},{"inputs":[{"internalType":"address","name":"newOwner","type":"address"}],"name":"transferOwnership","outputs":[],"stateMutability":"nonpayable","type":"function"},{"inputs":[],"name":"unpause","outputs":[],"stateMutability":"nonpayable","type":"function"},{"inputs":[{"internalType":"bytes32","name":"what","type":"bytes32"},{"internalType":"address","name":"value","type":"address"}],"name":"updateProtocolAddress","outputs":[],"stateMutability":"nonpayable","type":"function"},{"inputs":[{"internalType":"uint64","name":"_protocolFeePercent","type":"uint64"}],"name":"updateProtocolFee","outputs":[],"stateMutability":"nonpayable","type":"function"}],"devdoc":{"events":{"Initialized(uint8)":{"details":"Triggered when the contract has been initialized or reinitialized."},"OrderCreated(address,address,uint256,uint256,bytes32,uint256,string)":{"details":"Emitted when a deposit is made.","params":{"amount":"The amount of the deposit.","messageHash":"The hash of the message.","orderId":"The ID of the order.","rate":"The rate at which the deposit is made.","sender":"The address of the sender.","token":"The address of the deposited token."}},"OrderRefunded(uint256,bytes32)":{"details":"Emitted when an aggregator refunds a transaction.","params":{"fee":"The fee deducted from the refund amount.","orderId":"The ID of the order."}},"OrderSettled(bytes32,bytes32,address,uint96)":{"details":"Emitted when an aggregator settles a transaction.","params":{"liquidityProvider":"The address of the liquidity provider.","orderId":"The ID of the order.","settlePercent":"The percentage at which the transaction is settled.","splitOrderId":"The ID of the split order."}},"Paused(address)":{"details":"Emitted when the pause is triggered by `account`."},"SenderFeeTransferred(address,uint256)":{"details":"Emitted when the sender's fee is transferred.","params":{"amount":"The amount of the fee transferred.","sender":"The address of the sender."}},"Unpaused(address)":{"details":"Emitted when the pause is lifted by `account`."}},"kind":"dev","methods":{"acceptOwnership()":{"details":"The new owner accepts the ownership transfer."},"constructor":{"custom:oz-upgrades-unsafe-allow":"constructor"},"createOrder(address,uint256,uint96,address,uint256,address,string)":{"details":"See {createOrder-IGateway}. "},"getFeeDetails()":{"details":"See {getFeeDetails-IGateway}. "},"getOrderInfo(bytes32)":{"details":"See {getOrderInfo-IGateway}. "},"initialize()":{"details":"Initialize function."},"isTokenSupported(address)":{"details":"See {isTokenSupported-IGateway}. "},"owner()":{"details":"Returns the address of the current owner."},"pause()":{"details":"Pause the contract."},"paused()":{"details":"Returns true if the contract is paused, and false otherwise."},"pendingOwner()":{"details":"Returns the address of the pending owner."},"refund(uint256,bytes32)":{"details":"See {refund-IGateway}. "},"renounceOwnership()":{"details":"Leaves the contract without owner. It will not be possible to call `onlyOwner` functions. Can only be called by the current owner. NOTE: Renouncing ownership will leave the contract without an owner, thereby disabling any functionality that is only available to the owner."},"settingManagerBool(bytes32,address,uint256)":{"details":"Sets the boolean value for a specific setting.","params":{"status":"The boolean value to be set. Requirements: - The value must not be a zero address.","value":"The address or value associated with the setting.","what":"The setting to be updated."}},"settle(bytes32,bytes32,address,uint64)":{"details":"See {settle-IGateway}. "},"transferOwnership(address)":{"details":"Starts the ownership transfer of the contract to a new account. Replaces the pending transfer if there is one. Can only be called by the current owner."},"unpause()":{"details":"Unpause the contract."},"updateProtocolAddress(bytes32,address)":{"details":"Updates a protocol address.","params":{"value":"The new address to be set. Requirements: - The value must not be a zero address.","what":"The address type to be updated (treasury or aggregator)."}},"updateProtocolFee(uint64)":{"details":"Updates the protocol fee percentage.","params":{"_protocolFeePercent":"The new protocol fee percentage to be set."}}},"title":"Gateway","version":1},"evm":{"bytecode":{"linkReferences":{},"object":"608080604052346100c1576000549060ff8260081c1661006f575060ff80821603610034575b6040516118fc90816100c78239f35b60ff90811916176000557f7f26b83ff96e1f2b6a682f133852f6798a09c465da95921460cefb3847402498602060405160ff8152a138610025565b62461bcd60e51b815260206004820152602760248201527f496e697469616c697a61626c653a20636f6e747261637420697320696e697469604482015266616c697a696e6760c81b6064820152608490fd5b600080fdfe6080604052600436101561001257600080fd5b60003560e01c80633f4ba83a146114f457806340ebc6771461134b57806347094e2e146112df5780635c975abb146112bc578063715018a61461125557806371eedb881461100a57806375151b6314610fdd578063768c6ec014610e4b57806379ba509714610dc4578063809804f7146108555780638129fc1c146106f35780638456cb59146106995780638da5cb5b14610670578063b810c63614610642578063cd99240014610558578063e30c39781461052f578063f22ee704146101545763f2fde38b146100e257600080fd5b3461014f57602036600319011261014f576100fb61159e565b610103611605565b606580546001600160a01b0319166001600160a01b039283169081179091556033549091167f38d16b8cac22d99fc7c124b9cd0de2d3fa1faef420bfe791d8c362d765e22700600080a3005b600080fd5b3461014f57608036600319011261014f576044356001600160a01b038116900361014f576064356001600160401b038116810361014f576101a060018060a01b03609954163314611796565b60243560005260ff6020526101c060ff60056040600020015416156117d3565b60243560005260ff6020526101e360ff60056040600020015460081c1615611810565b60243560005260ff602052604060002060018060a01b036001820154166006820154916001600160601b036001600160401b03851681851603116105195760066001600160601b036001600160401b03861681861603166001600160601b031985161791015560243560005260ff60205260406000206001600160601b036006820154161561042d575b5061029e6001600160601b0361032393166102996001600160401b038616600760406000200154611763565b611776565b60243560005260ff60205260076040600020016102bc82825461184c565b90556098549160206102ed6102e66102dd6001600160401b03871686611763565b60975490611776565b809461184c565b6040805163a9059cbb60e01b8082529690911c6001600160a01b0316600482015260248101949094529294859081906044820190565b03816000855af19283156104045761036c94602094610410575b50600060405180968195829483526044356004840160209093929193604081019460018060a01b031681520152565b03925af18015610404576103d5575b506040805160043581526001600160401b039290921660208301526044356001600160a01b031691602435917f98ece21e01a01cbe1d1c0dad3b053c8fbd368f99be78be958fcf1d1d13fd249a91a3602060405160018152f35b6103f69060203d6020116103fd575b6103ee818361172a565b81019061174b565b508161037b565b503d6103e4565b6040513d6000823e3d90fd5b61042690853d87116103fd576103ee818361172a565b508661033d565b60058101805460ff191660011790556003810154908161044e575b5061026d565b600181015460029091015460405163a9059cbb60e01b81526001600160a01b039182166004820152602481019390935260209183916044918391600091165af18015610404576103239361029e926001600160601b03926104fa575b5060243560005260ff6020526040600020600360018060a01b03600283015416910154907f44f6938ca4a10313aabb76f874cced61e35710a734a126e4afb34461bf8c2501600080a39350610448565b6105129060203d6020116103fd576103ee818361172a565b50866104aa565b634e487b7160e01b600052601160045260246000fd5b3461014f57600036600319011261014f576065546040516001600160a01b039091168152602090f35b3461014f57606036600319011261014f57600435610574611588565b9060443591610581611605565b6001600160a01b031691610596831515611882565b600181148015610638575b156105f357643a37b5b2b760d91b82146105b757005b60207fcfa976492af7c14a916cc3a239f4c9c75bbd7f5f0e398beb41d892c7eeccae4c9184600052609a825280604060002055604051908152a3005b60405162461bcd60e51b815260206004820152601760248201527f476174657761793a20696e76616c6964207374617475730000000000000000006044820152606490fd5b50600281146105a1565b3461014f57600036600319011261014f5760406001600160401b036098541660975482519182526020820152f35b3461014f57600036600319011261014f576033546040516001600160a01b039091168152602090f35b3461014f57600036600319011261014f576106b2611605565b6106ba6116bd565b600160ff1960cd54161760cd557f62e78cea01bee320cd4e420270b5ea74000d11b0c9f74754ebdbfc544b05a2586020604051338152a1005b3461014f57600036600319011261014f5760005460ff8160081c1615808091610848575b8015610831575b156107d55760ff1982811660011760005591816107c3575b50620186a060975561076160ff60005460081c166107538161165d565b61075c8161165d565b61165d565b61076a336115b4565b6000549161078160ff8460081c1661075c8161165d565b60cd541660cd5561078e57005b61ff0019166000557f7f26b83ff96e1f2b6a682f133852f6798a09c465da95921460cefb3847402498602060405160018152a1005b61ffff19166101011760005582610736565b60405162461bcd60e51b815260206004820152602e60248201527f496e697469616c697a61626c653a20636f6e747261637420697320616c72656160448201526d191e481a5b9a5d1a585b1a5e995960921b6064820152608490fd5b50303b15801561071e5750600160ff83161461071e565b50600160ff831610610717565b3461014f5760e036600319011261014f5761086e61159e565b6044356001600160601b038116810361014f576064356001600160a01b038116810361014f5760a435906001600160a01b038216820361014f576001600160401b0360c4351161014f5736602360c43501121561014f576001600160401b0360c435600401351161014f5736602460c4356004013560c43501011161014f576108f56116bd565b6001600160a01b0384166000908152609a602052604090205460001901610d8b5760243515610d57576001600160a01b03821615610d1f57608435610ccc575b60c4356004013515610c925761094f608435602435611701565b6040516323b872dd60e01b8152336004820152306024820152604481019190915260208160648160006001600160a01b038a165af1801561040457610c73575b50336000526101006020526040600020805460001981146105195760010190553360005261010060205260406000205493604051943360208701526040860152466060860152606085528460808101106001600160401b03608087011117610c5d576080850160405284516020860120938460005260ff60205260018060a01b0360406000205416610c2157917f40ccd1ceb111a3c186ef9911e1b876dc1f789ed331b86097b3b8851055b6a13760209594926001600160601b03600795610a646001600160401b0360985416602435611763565b946001600160401b03610a7a6097548098611776565b9660405192610a888461170e565b33845260018060a01b0387168d85015260018060a01b031660408401526084356060840152876080840152600060a0840152600060c084015260018060a01b03891660e0840152166101008201526024356101208201528860005260ff8a5261012060406000209160018060a01b038151168560a01b90818554161784556001840160018060a01b038e8401511682825416179055600284019060018060a01b036040840151169082541617905560608101516003840155608081015160048401556005830160a08201511515815461ff0060c0850151151560081b169060ff62010000600160b01b0360e087015160101b1693169069ffffffffffffffffffff60b01b16171717905560068301856101008301511686198254161790550151978891015560405194855287898601521660408401526080606084015260c43560040135608084015260c43560040135602460c4350160a08501376000600460c435013584810160a0908101929092526001600160a01b039283169590921693601f909201601f191682018290030190a4604051908152f35b62461bcd60e51b6080870190815260206084880152601260a4880152714f72646572416c726561647945786973747360701b60c4880152606490fd5b634e487b7160e01b600052604160045260246000fd5b610c8b9060203d6020116103fd576103ee818361172a565b508461098f565b60405162461bcd60e51b8152602060048201526012602482015271092dcecc2d8d2c89acae6e6c2ceca90c2e6d60731b6044820152606490fd5b6001600160a01b0381166109355760405162461bcd60e51b815260206004820152601960248201527f496e76616c696453656e646572466565526563697069656e74000000000000006044820152606490fd5b60405162461bcd60e51b815260206004820152601060248201526f5468726f775a65726f4164647265737360801b6044820152606490fd5b60405162461bcd60e51b815260206004820152600c60248201526b416d6f756e7449735a65726f60a01b6044820152606490fd5b60405162461bcd60e51b8152602060048201526011602482015270151bdad95b939bdd14dd5c1c1bdc9d1959607a1b6044820152606490fd5b3461014f57600036600319011261014f57606554336001600160a01b0390911603610df457610df2336115b4565b005b60405162461bcd60e51b815260206004820152602960248201527f4f776e61626c6532537465703a2063616c6c6572206973206e6f7420746865206044820152683732bb9037bbb732b960b91b6064820152608490fd5b3461014f57602036600319011261014f576000610120604051610e6d8161170e565b8281528260208201528260408201528260608201528260808201528260a08201528260c08201528260e082015282610100820152015260043560005260ff6020526101406040600020610120604051610ec58161170e565b600760018060a01b038454169384835260018060a01b03600182015416602084015260018060a01b0360028201541660408401526003810154606084015260048101546080840152600581015460ff8116151560a085015260ff8160081c16151560c085015260018060a01b039060101c1660e08401526001600160601b0360068201541661010084015201548282015260405192835260018060a01b03602082015116602084015260018060a01b036040820151166040840152606081015160608401526080810151608084015260a0810151151560a084015260c0810151151560c084015260018060a01b0360e08201511660e08401526001600160601b03610100820151166101008401520151610120820152f35b3461014f57602036600319011261014f576020611000610ffb61159e565b611859565b6040519015158152f35b3461014f57604036600319011261014f5760043560243560018060a01b0361103781609954163314611796565b8160005260ff926020938085526110588160056040600020015416156117d3565b836000528085526110768160056040600020015460081c1615611810565b83600052808552816004604060002001541061121857849082611197575b61113593856000528183526110d484600760406000206005810161010061ff0019825416179055600681016001600160601b03198154169055015461184c565b9186600052835261110060406000209260038360018601541693600586015460101c1694015490611701565b60405163a9059cbb60e01b81526001600160a01b03909316600484015260248301529093849190829060009082906044820190565b03925af1908115610404577f0736fe428e1747ca8d387c2e6fa1a31a0cde62d3a167c40a46ade59a3cdc828e92859261117a575b50604051908152a260405160018152f35b61119090833d85116103fd576103ee818361172a565b5085611169565b6000858152818752604080822060010154609854825163a9059cbb60e01b8152921c87166001600160a01b03166004830152602482018690529095935087918691604491839187165af1918215610404576111359487936111fb575b509350611094565b61121190843d86116103fd576103ee818361172a565b50876111f3565b60405162461bcd60e51b81526004810186905260156024820152744665654578636565647350726f746f636f6c46656560581b6044820152606490fd5b3461014f57600036600319011261014f5761126e611605565b606580546001600160a01b03199081169091556033805491821690556000906001600160a01b03167f8be0079c531659141344cd1fd0a4f28419497f9722a3daafe3b4186f6b6457e08280a3005b3461014f57600036600319011261014f57602060ff60cd54166040519015158152f35b3461014f57602036600319011261014f576004356001600160401b03811680910361014f5760207f1ce29a697a4765bd17d91df93ba75b250b629ecf030553ff1f6ab59f15ae6c7b91611330611605565b806001600160401b03196098541617609855604051908152a1005b3461014f57604036600319011261014f57600435611367611588565b90611370611605565b6001600160a01b0382811692611387841515611882565b600067747265617375727960c01b840361145d575083609854928360401c161461140a5768010000000000000000600160e01b031990911660409190911b68010000000000000000600160e01b03161760985560015b6113e357005b7fbbc5b96e57cfecb3dbeeadf92e87f15e58e64fcd75cbe256dcc5d9ef2e51e8a4600080a3005b60405162461bcd60e51b815260206004820152602560248201527f476174657761793a207472656173757279206164647265737320616c726561646044820152641e481cd95d60da1b6064820152608490fd5b9190506930b3b3b932b3b0ba37b960b11b831461147b575b506113dd565b60995491508116831461149f576001600160a01b0319168217609955600183611475565b60405162461bcd60e51b815260206004820152602760248201527f476174657761793a2061676772656761746f72206164647265737320616c726560448201526618591e481cd95d60ca1b6064820152608490fd5b3461014f57600036600319011261014f5761150d611605565b60cd5460ff81161561154c5760ff191660cd557f5db9ee0a495bf2e6ff9c91a7834c1ba4fdd244a5e8aa4e537bd38aeae4b073aa6020604051338152a1005b60405162461bcd60e51b815260206004820152601460248201527314185d5cd8589b194e881b9bdd081c185d5cd95960621b6044820152606490fd5b602435906001600160a01b038216820361014f57565b600435906001600160a01b038216820361014f57565b6001600160601b0360a01b90816065541660655560335460018060a01b038092168093821617603355167f8be0079c531659141344cd1fd0a4f28419497f9722a3daafe3b4186f6b6457e0600080a3565b6033546001600160a01b0316330361161957565b606460405162461bcd60e51b815260206004820152602060248201527f4f776e61626c653a2063616c6c6572206973206e6f7420746865206f776e65726044820152fd5b1561166457565b60405162461bcd60e51b815260206004820152602b60248201527f496e697469616c697a61626c653a20636f6e7472616374206973206e6f74206960448201526a6e697469616c697a696e6760a81b6064820152608490fd5b60ff60cd54166116c957565b60405162461bcd60e51b815260206004820152601060248201526f14185d5cd8589b194e881c185d5cd95960821b6044820152606490fd5b9190820180921161051957565b61014081019081106001600160401b03821117610c5d57604052565b90601f801991011681019081106001600160401b03821117610c5d57604052565b9081602091031261014f5751801515810361014f5790565b8181029291811591840414171561051957565b8115611780570490565b634e487b7160e01b600052601260045260246000fd5b1561179d57565b60405162461bcd60e51b815260206004820152600e60248201526d27b7363ca0b3b3b932b3b0ba37b960911b6044820152606490fd5b156117da57565b60405162461bcd60e51b815260206004820152600e60248201526d13dc99195c919d5b199a5b1b195960921b6044820152606490fd5b1561181757565b60405162461bcd60e51b815260206004820152600d60248201526c13dc99195c9499599d5b991959609a1b6044820152606490fd5b9190820391821161051957565b6001600160a01b03166000908152609a602052604090205460011461187d57600090565b600190565b1561188957565b60405162461bcd60e51b8152602060048201526015602482015274476174657761793a207a65726f206164647265737360581b6044820152606490fdfea2646970667358221220f11d59d14e0b235acbb77206948777c4ee61df24df9424ac128e686adb93fd7464736f6c63430008140033","opcodes":"PUSH1 0x80 DUP1 PUSH1 0x40 MSTORE CALLVALUE PUSH2 0xC1 JUMPI PUSH1 0x0 SLOAD SWAP1 PUSH1 0xFF DUP3 PUSH1 0x8 SHR AND PUSH2 0x6F JUMPI POP PUSH1 0xFF DUP1 DUP3 AND SUB PUSH2 0x34 JUMPI JUMPDEST PUSH1 0x40 MLOAD PUSH2 0x18FC SWAP1 DUP2 PUSH2 0xC7 DUP3 CODECOPY RETURN JUMPDEST PUSH1 0xFF SWAP1 DUP2 NOT AND OR PUSH1 0x0 SSTORE PUSH32 0x7F26B83FF96E1F2B6A682F133852F6798A09C465DA95921460CEFB3847402498 PUSH1 0x20 PUSH1 0x40 MLOAD PUSH1 0xFF DUP2 MSTORE LOG1 CODESIZE PUSH2 0x25 JUMP JUMPDEST PUSH3 0x461BCD PUSH1 0xE5 SHL DUP2 MSTORE PUSH1 0x20 PUSH1 0x4 DUP3 ADD MSTORE PUSH1 0x27 PUSH1 0x24 DUP3 ADD MSTORE PUSH32 0x496E697469616C697A61626C653A20636F6E747261637420697320696E697469 PUSH1 0x44 DUP3 ADD MSTORE PUSH7 0x616C697A696E67 PUSH1 0xC8 SHL PUSH1 0x64 DUP3 ADD MSTORE PUSH1 0x84 SWAP1 REVERT JUMPDEST PUSH1 0x0 DUP1 REVERT INVALID PUSH1 0x80 PUSH1 0x40 MSTORE PUSH1 0x4 CALLDATASIZE LT ISZERO PUSH2 0x12 JUMPI PUSH1 0x0 DUP1 REVERT JUMPDEST PUSH1 0x0 CALLDATALOAD PUSH1 0xE0 SHR DUP1 PUSH4 0x3F4BA83A EQ PUSH2 0x14F4 JUMPI DUP1 PUSH4 0x40EBC677 EQ PUSH2 0x134B JUMPI DUP1 PUSH4 0x47094E2E EQ PUSH2 0x12DF JUMPI DUP1 PUSH4 0x5C975ABB EQ PUSH2 0x12BC JUMPI DUP1 PUSH4 0x715018A6 EQ PUSH2 0x1255 JUMPI DUP1 PUSH4 0x71EEDB88 EQ PUSH2 0x100A JUMPI DUP1 PUSH4 0x75151B63 EQ PUSH2 0xFDD JUMPI DUP1 PUSH4 0x768C6EC0 EQ PUSH2 0xE4B JUMPI DUP1 PUSH4 0x79BA5097 EQ PUSH2 0xDC4 JUMPI DUP1 PUSH4 0x809804F7 EQ PUSH2 0x855 JUMPI DUP1 PUSH4 0x8129FC1C EQ PUSH2 0x6F3 JUMPI DUP1 PUSH4 0x8456CB59 EQ PUSH2 0x699 JUMPI DUP1 PUSH4 0x8DA5CB5B EQ PUSH2 0x670 JUMPI DUP1 PUSH4 0xB810C636 EQ PUSH2 0x642 JUMPI DUP1 PUSH4 0xCD992400 EQ PUSH2 0x558 JUMPI DUP1 PUSH4 0xE30C3978 EQ PUSH2 0x52F JUMPI DUP1 PUSH4 0xF22EE704 EQ PUSH2 0x154 JUMPI PUSH4 0xF2FDE38B EQ PUSH2 0xE2 JUMPI PUSH1 0x0 DUP1 REVERT JUMPDEST CALLVALUE PUSH2 0x14F JUMPI PUSH1 0x20 CALLDATASIZE PUSH1 0x3 NOT ADD SLT PUSH2 0x14F JUMPI PUSH2 0xFB PUSH2 0x159E JUMP JUMPDEST PUSH2 0x103 PUSH2 0x1605 JUMP JUMPDEST PUSH1 0x65 DUP1 SLOAD PUSH1 0x1 PUSH1 0x1 PUSH1 0xA0 SHL SUB NOT AND PUSH1 0x1 PUSH1 0x1 PUSH1 0xA0 SHL SUB SWAP3 DUP4 AND SWAP1 DUP2 OR SWAP1 SWAP2 SSTORE PUSH1 0x33 SLOAD SWAP1 SWAP2 AND PUSH32 0x38D16B8CAC22D99FC7C124B9CD0DE2D3FA1FAEF420BFE791D8C362D765E22700 PUSH1 0x0 DUP1 LOG3 STOP JUMPDEST PUSH1 0x0 DUP1 REVERT JUMPDEST CALLVALUE PUSH2 0x14F JUMPI PUSH1 0x80 CALLDATASIZE PUSH1 0x3 NOT ADD SLT PUSH2 0x14F JUMPI PUSH1 0x44 CALLDATALOAD PUSH1 0x1 PUSH1 0x1 PUSH1 0xA0 SHL SUB DUP2 AND SWAP1 SUB PUSH2 0x14F JUMPI PUSH1 0x64 CALLDATALOAD PUSH1 0x1 PUSH1 0x1 PUSH1 0x40 SHL SUB DUP2 AND DUP2 SUB PUSH2 0x14F JUMPI PUSH2 0x1A0 PUSH1 0x1 DUP1 PUSH1 0xA0 SHL SUB PUSH1 0x99 SLOAD AND CALLER EQ PUSH2 0x1796 JUMP JUMPDEST PUSH1 0x24 CALLDATALOAD PUSH1 0x0 MSTORE PUSH1 0xFF PUSH1 0x20 MSTORE PUSH2 0x1C0 PUSH1 0xFF PUSH1 0x5 PUSH1 0x40 PUSH1 0x0 KECCAK256 ADD SLOAD AND ISZERO PUSH2 0x17D3 JUMP JUMPDEST PUSH1 0x24 CALLDATALOAD PUSH1 0x0 MSTORE PUSH1 0xFF PUSH1 0x20 MSTORE PUSH2 0x1E3 PUSH1 0xFF PUSH1 0x5 PUSH1 0x40 PUSH1 0x0 KECCAK256 ADD SLOAD PUSH1 0x8 SHR AND ISZERO PUSH2 0x1810 JUMP JUMPDEST PUSH1 0x24 CALLDATALOAD PUSH1 0x0 MSTORE PUSH1 0xFF PUSH1 0x20 MSTORE PUSH1 0x40 PUSH1 0x0 KECCAK256 PUSH1 0x1 DUP1 PUSH1 0xA0 SHL SUB PUSH1 0x1 DUP3 ADD SLOAD AND PUSH1 0x6 DUP3 ADD SLOAD SWAP2 PUSH1 0x1 PUSH1 0x1 PUSH1 0x60 SHL SUB PUSH1 0x1 PUSH1 0x1 PUSH1 0x40 SHL SUB DUP6 AND DUP2 DUP6 AND SUB GT PUSH2 0x519 JUMPI PUSH1 0x6 PUSH1 0x1 PUSH1 0x1 PUSH1 0x60 SHL SUB PUSH1 0x1 PUSH1 0x1 PUSH1 0x40 SHL SUB DUP7 AND DUP2 DUP7 AND SUB AND PUSH1 0x1 PUSH1 0x1 PUSH1 0x60 SHL SUB NOT DUP6 AND OR SWAP2 ADD SSTORE PUSH1 0x24 CALLDATALOAD PUSH1 0x0 MSTORE PUSH1 0xFF PUSH1 0x20 MSTORE PUSH1 0x40 PUSH1 0x0 KECCAK256 PUSH1 0x1 PUSH1 0x1 PUSH1 0x60 SHL SUB PUSH1 0x6 DUP3 ADD SLOAD AND ISZERO PUSH2 0x42D JUMPI JUMPDEST POP PUSH2 0x29E PUSH1 0x1 PUSH1 0x1 PUSH1 0x60 SHL SUB PUSH2 0x323 SWAP4 AND PUSH2 0x299 PUSH1 0x1 PUSH1 0x1 PUSH1 0x40 SHL SUB DUP7 AND PUSH1 0x7 PUSH1 0x40 PUSH1 0x0 KECCAK256 ADD SLOAD PUSH2 0x1763 JUMP JUMPDEST PUSH2 0x1776 JUMP JUMPDEST PUSH1 0x24 CALLDATALOAD PUSH1 0x0 MSTORE PUSH1 0xFF PUSH1 0x20 MSTORE PUSH1 0x7 PUSH1 0x40 PUSH1 0x0 KECCAK256 ADD PUSH2 0x2BC DUP3 DUP3 SLOAD PUSH2 0x184C JUMP JUMPDEST SWAP1 SSTORE PUSH1 0x98 SLOAD SWAP2 PUSH1 0x20 PUSH2 0x2ED PUSH2 0x2E6 PUSH2 0x2DD PUSH1 0x1 PUSH1 0x1 PUSH1 0x40 SHL SUB DUP8 AND DUP7 PUSH2 0x1763 JUMP JUMPDEST PUSH1 0x97 SLOAD SWAP1 PUSH2 0x1776 JUMP JUMPDEST DUP1 SWAP5 PUSH2 0x184C JUMP JUMPDEST PUSH1 0x40 DUP1 MLOAD PUSH4 0xA9059CBB PUSH1 0xE0 SHL DUP1 DUP3 MSTORE SWAP7 SWAP1 SWAP2 SHR PUSH1 0x1 PUSH1 0x1 PUSH1 0xA0 SHL SUB AND PUSH1 0x4 DUP3 ADD MSTORE PUSH1 0x24 DUP2 ADD SWAP5 SWAP1 SWAP5 MSTORE SWAP3 SWAP5 DUP6 SWAP1 DUP2 SWAP1 PUSH1 0x44 DUP3 ADD SWAP1 JUMP JUMPDEST SUB DUP2 PUSH1 0x0 DUP6 GAS CALL SWAP3 DUP4 ISZERO PUSH2 0x404 JUMPI PUSH2 0x36C SWAP5 PUSH1 0x20 SWAP5 PUSH2 0x410 JUMPI JUMPDEST POP PUSH1 0x0 PUSH1 0x40 MLOAD DUP1 SWAP7 DUP2 SWAP6 DUP3 SWAP5 DUP4 MSTORE PUSH1 0x44 CALLDATALOAD PUSH1 0x4 DUP5 ADD PUSH1 0x20 SWAP1 SWAP4 SWAP3 SWAP2 SWAP4 PUSH1 0x40 DUP2 ADD SWAP5 PUSH1 0x1 DUP1 PUSH1 0xA0 SHL SUB AND DUP2 MSTORE ADD MSTORE JUMP JUMPDEST SUB SWAP3 GAS CALL DUP1 ISZERO PUSH2 0x404 JUMPI PUSH2 0x3D5 JUMPI JUMPDEST POP PUSH1 0x40 DUP1 MLOAD PUSH1 0x4 CALLDATALOAD DUP2 MSTORE PUSH1 0x1 PUSH1 0x1 PUSH1 0x40 SHL SUB SWAP3 SWAP1 SWAP3 AND PUSH1 0x20 DUP4 ADD MSTORE PUSH1 0x44 CALLDATALOAD PUSH1 0x1 PUSH1 0x1 PUSH1 0xA0 SHL SUB AND SWAP2 PUSH1 0x24 CALLDATALOAD SWAP2 PUSH32 0x98ECE21E01A01CBE1D1C0DAD3B053C8FBD368F99BE78BE958FCF1D1D13FD249A SWAP2 LOG3 PUSH1 0x20 PUSH1 0x40 MLOAD PUSH1 0x1 DUP2 MSTORE RETURN JUMPDEST PUSH2 0x3F6 SWAP1 PUSH1 0x20 RETURNDATASIZE PUSH1 0x20 GT PUSH2 0x3FD JUMPI JUMPDEST PUSH2 0x3EE DUP2 DUP4 PUSH2 0x172A JUMP JUMPDEST DUP2 ADD SWAP1 PUSH2 0x174B JUMP JUMPDEST POP DUP2 PUSH2 0x37B JUMP JUMPDEST POP RETURNDATASIZE PUSH2 0x3E4 JUMP JUMPDEST PUSH1 0x40 MLOAD RETURNDATASIZE PUSH1 0x0 DUP3 RETURNDATACOPY RETURNDATASIZE SWAP1 REVERT JUMPDEST PUSH2 0x426 SWAP1 DUP6 RETURNDATASIZE DUP8 GT PUSH2 0x3FD JUMPI PUSH2 0x3EE DUP2 DUP4 PUSH2 0x172A JUMP JUMPDEST POP DUP7 PUSH2 0x33D JUMP JUMPDEST PUSH1 0x5 DUP2 ADD DUP1 SLOAD PUSH1 0xFF NOT AND PUSH1 0x1 OR SWAP1 SSTORE PUSH1 0x3 DUP2 ADD SLOAD SWAP1 DUP2 PUSH2 0x44E JUMPI JUMPDEST POP PUSH2 0x26D JUMP JUMPDEST PUSH1 0x1 DUP2 ADD SLOAD PUSH1 0x2 SWAP1 SWAP2 ADD SLOAD PUSH1 0x40 MLOAD PUSH4 0xA9059CBB PUSH1 0xE0 SHL DUP2 MSTORE PUSH1 0x1 PUSH1 0x1 PUSH1 0xA0 SHL SUB SWAP2 DUP3 AND PUSH1 0x4 DUP3 ADD MSTORE PUSH1 0x24 DUP2 ADD SWAP4 SWAP1 SWAP4 MSTORE PUSH1 0x20 SWAP2 DUP4 SWAP2 PUSH1 0x44 SWAP2 DUP4 SWAP2 PUSH1 0x0 SWAP2 AND GAS CALL DUP1 ISZERO PUSH2 0x404 JUMPI PUSH2 0x323 SWAP4 PUSH2 0x29E SWAP3 PUSH1 0x1 PUSH1 0x1 PUSH1 0x60 SHL SUB SWAP3 PUSH2 0x4FA JUMPI JUMPDEST POP PUSH1 0x24 CALLDATALOAD PUSH1 0x0 MSTORE PUSH1 0xFF PUSH1 0x20 MSTORE PUSH1 0x40 PUSH1 0x0 KECCAK256 PUSH1 0x3 PUSH1 0x1 DUP1 PUSH1 0xA0 SHL SUB PUSH1 0x2 DUP4 ADD SLOAD AND SWAP2 ADD SLOAD SWAP1 PUSH32 0x44F6938CA4A10313AABB76F874CCED61E35710A734A126E4AFB34461BF8C2501 PUSH1 0x0 DUP1 LOG3 SWAP4 POP PUSH2 0x448 JUMP JUMPDEST PUSH2 0x512 SWAP1 PUSH1 0x20 RETURNDATASIZE PUSH1 0x20 GT PUSH2 0x3FD JUMPI PUSH2 0x3EE DUP2 DUP4 PUSH2 0x172A JUMP JUMPDEST POP DUP7 PUSH2 0x4AA JUMP JUMPDEST PUSH4 0x4E487B71 PUSH1 0xE0 SHL PUSH1 0x0 MSTORE PUSH1 0x11 PUSH1 0x4 MSTORE PUSH1 0x24 PUSH1 0x0 REVERT JUMPDEST CALLVALUE PUSH2 0x14F JUMPI PUSH1 0x0 CALLDATASIZE PUSH1 0x3 NOT ADD SLT PUSH2 0x14F JUMPI PUSH1 0x65 SLOAD PUSH1 0x40 MLOAD PUSH1 0x1 PUSH1 0x1 PUSH1 0xA0 SHL SUB SWAP1 SWAP2 AND DUP2 MSTORE PUSH1 0x20 SWAP1 RETURN JUMPDEST CALLVALUE PUSH2 0x14F JUMPI PUSH1 0x60 CALLDATASIZE PUSH1 0x3 NOT ADD SLT PUSH2 0x14F JUMPI PUSH1 0x4 CALLDATALOAD PUSH2 0x574 PUSH2 0x1588 JUMP JUMPDEST SWAP1 PUSH1 0x44 CALLDATALOAD SWAP2 PUSH2 0x581 PUSH2 0x1605 JUMP JUMPDEST PUSH1 0x1 PUSH1 0x1 PUSH1 0xA0 SHL SUB AND SWAP2 PUSH2 0x596 DUP4 ISZERO ISZERO PUSH2 0x1882 JUMP JUMPDEST PUSH1 0x1 DUP2 EQ DUP1 ISZERO PUSH2 0x638 JUMPI JUMPDEST ISZERO PUSH2 0x5F3 JUMPI PUSH5 0x3A37B5B2B7 PUSH1 0xD9 SHL DUP3 EQ PUSH2 0x5B7 JUMPI STOP JUMPDEST PUSH1 0x20 PUSH32 0xCFA976492AF7C14A916CC3A239F4C9C75BBD7F5F0E398BEB41D892C7EECCAE4C SWAP2 DUP5 PUSH1 0x0 MSTORE PUSH1 0x9A DUP3 MSTORE DUP1 PUSH1 0x40 PUSH1 0x0 KECCAK256 SSTORE PUSH1 0x40 MLOAD SWAP1 DUP2 MSTORE LOG3 STOP JUMPDEST PUSH1 0x40 MLOAD PUSH3 0x461BCD PUSH1 0xE5 SHL DUP2 MSTORE PUSH1 0x20 PUSH1 0x4 DUP3 ADD MSTORE PUSH1 0x17 PUSH1 0x24 DUP3 ADD MSTORE PUSH32 0x476174657761793A20696E76616C696420737461747573000000000000000000 PUSH1 0x44 DUP3 ADD MSTORE PUSH1 0x64 SWAP1 REVERT JUMPDEST POP PUSH1 0x2 DUP2 EQ PUSH2 0x5A1 JUMP JUMPDEST CALLVALUE PUSH2 0x14F JUMPI PUSH1 0x0 CALLDATASIZE PUSH1 0x3 NOT ADD SLT PUSH2 0x14F JUMPI PUSH1 0x40 PUSH1 0x1 PUSH1 0x1 PUSH1 0x40 SHL SUB PUSH1 0x98 SLOAD AND PUSH1 0x97 SLOAD DUP3 MLOAD SWAP2 DUP3 MSTORE PUSH1 0x20 DUP3 ADD MSTORE RETURN JUMPDEST CALLVALUE PUSH2 0x14F JUMPI PUSH1 0x0 CALLDATASIZE PUSH1 0x3 NOT ADD SLT PUSH2 0x14F JUMPI PUSH1 0x33 SLOAD PUSH1 0x40 MLOAD PUSH1 0x1 PUSH1 0x1 PUSH1 0xA0 SHL SUB SWAP1 SWAP2 AND DUP2 MSTORE PUSH1 0x20 SWAP1 RETURN JUMPDEST CALLVALUE PUSH2 0x14F JUMPI PUSH1 0x0 CALLDATASIZE PUSH1 0x3 NOT ADD SLT PUSH2 0x14F JUMPI PUSH2 0x6B2 PUSH2 0x1605 JUMP JUMPDEST PUSH2 0x6BA PUSH2 0x16BD JUMP JUMPDEST PUSH1 0x1 PUSH1 0xFF NOT PUSH1 0xCD SLOAD AND OR PUSH1 0xCD SSTORE PUSH32 0x62E78CEA01BEE320CD4E420270B5EA74000D11B0C9F74754EBDBFC544B05A258 PUSH1 0x20 PUSH1 0x40 MLOAD CALLER DUP2 MSTORE LOG1 STOP JUMPDEST CALLVALUE PUSH2 0x14F JUMPI PUSH1 0x0 CALLDATASIZE PUSH1 0x3 NOT ADD SLT PUSH2 0x14F JUMPI PUSH1 0x0 SLOAD PUSH1 0xFF DUP2 PUSH1 0x8 SHR AND ISZERO DUP1 DUP1 SWAP2 PUSH2 0x848 JUMPI JUMPDEST DUP1 ISZERO PUSH2 0x831 JUMPI JUMPDEST ISZERO PUSH2 0x7D5 JUMPI PUSH1 0xFF NOT DUP3 DUP2 AND PUSH1 0x1 OR PUSH1 0x0 SSTORE SWAP2 DUP2 PUSH2 0x7C3 JUMPI JUMPDEST POP PUSH3 0x186A0 PUSH1 0x97 SSTORE PUSH2 0x761 PUSH1 0xFF PUSH1 0x0 SLOAD PUSH1 0x8 SHR AND PUSH2 0x753 DUP2 PUSH2 0x165D JUMP JUMPDEST PUSH2 0x75C DUP2 PUSH2 0x165D JUMP JUMPDEST PUSH2 0x165D JUMP JUMPDEST PUSH2 0x76A CALLER PUSH2 0x15B4 JUMP JUMPDEST PUSH1 0x0 SLOAD SWAP2 PUSH2 0x781 PUSH1 0xFF DUP5 PUSH1 0x8 SHR AND PUSH2 0x75C DUP2 PUSH2 0x165D JUMP JUMPDEST PUSH1 0xCD SLOAD AND PUSH1 0xCD SSTORE PUSH2 0x78E JUMPI STOP JUMPDEST PUSH2 0xFF00 NOT AND PUSH1 0x0 SSTORE PUSH32 0x7F26B83FF96E1F2B6A682F133852F6798A09C465DA95921460CEFB3847402498 PUSH1 0x20 PUSH1 0x40 MLOAD PUSH1 0x1 DUP2 MSTORE LOG1 STOP JUMPDEST PUSH2 0xFFFF NOT AND PUSH2 0x101 OR PUSH1 0x0 SSTORE DUP3 PUSH2 0x736 JUMP JUMPDEST PUSH1 0x40 MLOAD PUSH3 0x461BCD PUSH1 0xE5 SHL DUP2 MSTORE PUSH1 0x20 PUSH1 0x4 DUP3 ADD MSTORE PUSH1 0x2E PUSH1 0x24 DUP3 ADD MSTORE PUSH32 0x496E697469616C697A61626C653A20636F6E747261637420697320616C726561 PUSH1 0x44 DUP3 ADD MSTORE PUSH14 0x191E481A5B9A5D1A585B1A5E9959 PUSH1 0x92 SHL PUSH1 0x64 DUP3 ADD MSTORE PUSH1 0x84 SWAP1 REVERT JUMPDEST POP ADDRESS EXTCODESIZE ISZERO DUP1 ISZERO PUSH2 0x71E JUMPI POP PUSH1 0x1 PUSH1 0xFF DUP4 AND EQ PUSH2 0x71E JUMP JUMPDEST POP PUSH1 0x1 PUSH1 0xFF DUP4 AND LT PUSH2 0x717 JUMP JUMPDEST CALLVALUE PUSH2 0x14F JUMPI PUSH1 0xE0 CALLDATASIZE PUSH1 0x3 NOT ADD SLT PUSH2 0x14F JUMPI PUSH2 0x86E PUSH2 0x159E JUMP JUMPDEST PUSH1 0x44 CALLDATALOAD PUSH1 0x1 PUSH1 0x1 PUSH1 0x60 SHL SUB DUP2 AND DUP2 SUB PUSH2 0x14F JUMPI PUSH1 0x64 CALLDATALOAD PUSH1 0x1 PUSH1 0x1 PUSH1 0xA0 SHL SUB DUP2 AND DUP2 SUB PUSH2 0x14F JUMPI PUSH1 0xA4 CALLDATALOAD SWAP1 PUSH1 0x1 PUSH1 0x1 PUSH1 0xA0 SHL SUB DUP3 AND DUP3 SUB PUSH2 0x14F JUMPI PUSH1 0x1 PUSH1 0x1 PUSH1 0x40 SHL SUB PUSH1 0xC4 CALLDATALOAD GT PUSH2 0x14F JUMPI CALLDATASIZE PUSH1 0x23 PUSH1 0xC4 CALLDATALOAD ADD SLT ISZERO PUSH2 0x14F JUMPI PUSH1 0x1 PUSH1 0x1 PUSH1 0x40 SHL SUB PUSH1 0xC4 CALLDATALOAD PUSH1 0x4 ADD CALLDATALOAD GT PUSH2 0x14F JUMPI CALLDATASIZE PUSH1 0x24 PUSH1 0xC4 CALLDATALOAD PUSH1 0x4 ADD CALLDATALOAD PUSH1 0xC4 CALLDATALOAD ADD ADD GT PUSH2 0x14F JUMPI PUSH2 0x8F5 PUSH2 0x16BD JUMP JUMPDEST PUSH1 0x1 PUSH1 0x1 PUSH1 0xA0 SHL SUB DUP5 AND PUSH1 0x0 SWAP1 DUP2 MSTORE PUSH1 0x9A PUSH1 0x20 MSTORE PUSH1 0x40 SWAP1 KECCAK256 SLOAD PUSH1 0x0 NOT ADD PUSH2 0xD8B JUMPI PUSH1 0x24 CALLDATALOAD ISZERO PUSH2 0xD57 JUMPI PUSH1 0x1 PUSH1 0x1 PUSH1 0xA0 SHL SUB DUP3 AND ISZERO PUSH2 0xD1F JUMPI PUSH1 0x84 CALLDATALOAD PUSH2 0xCCC JUMPI JUMPDEST PUSH1 0xC4 CALLDATALOAD PUSH1 0x4 ADD CALLDATALOAD ISZERO PUSH2 0xC92 JUMPI PUSH2 0x94F PUSH1 0x84 CALLDATALOAD PUSH1 0x24 CALLDATALOAD PUSH2 0x1701 JUMP JUMPDEST PUSH1 0x40 MLOAD PUSH4 0x23B872DD PUSH1 0xE0 SHL DUP2 MSTORE CALLER PUSH1 0x4 DUP3 ADD MSTORE ADDRESS PUSH1 0x24 DUP3 ADD MSTORE PUSH1 0x44 DUP2 ADD SWAP2 SWAP1 SWAP2 MSTORE PUSH1 0x20 DUP2 PUSH1 0x64 DUP2 PUSH1 0x0 PUSH1 0x1 PUSH1 0x1 PUSH1 0xA0 SHL SUB DUP11 AND GAS CALL DUP1 ISZERO PUSH2 0x404 JUMPI PUSH2 0xC73 JUMPI JUMPDEST POP CALLER PUSH1 0x0 MSTORE PUSH2 0x100 PUSH1 0x20 MSTORE PUSH1 0x40 PUSH1 0x0 KECCAK256 DUP1 SLOAD PUSH1 0x0 NOT DUP2 EQ PUSH2 0x519 JUMPI PUSH1 0x1 ADD SWAP1 SSTORE CALLER PUSH1 0x0 MSTORE PUSH2 0x100 PUSH1 0x20 MSTORE PUSH1 0x40 PUSH1 0x0 KECCAK256 SLOAD SWAP4 PUSH1 0x40 MLOAD SWAP5 CALLER PUSH1 0x20 DUP8 ADD MSTORE PUSH1 0x40 DUP7 ADD MSTORE CHAINID PUSH1 0x60 DUP7 ADD MSTORE PUSH1 0x60 DUP6 MSTORE DUP5 PUSH1 0x80 DUP2 ADD LT PUSH1 0x1 PUSH1 0x1 PUSH1 0x40 SHL SUB PUSH1 0x80 DUP8 ADD GT OR PUSH2 0xC5D JUMPI PUSH1 0x80 DUP6 ADD PUSH1 0x40 MSTORE DUP5 MLOAD PUSH1 0x20 DUP7 ADD KECCAK256 SWAP4 DUP5 PUSH1 0x0 MSTORE PUSH1 0xFF PUSH1 0x20 MSTORE PUSH1 0x1 DUP1 PUSH1 0xA0 SHL SUB PUSH1 0x40 PUSH1 0x0 KECCAK256 SLOAD AND PUSH2 0xC21 JUMPI SWAP2 PUSH32 0x40CCD1CEB111A3C186EF9911E1B876DC1F789ED331B86097B3B8851055B6A137 PUSH1 0x20 SWAP6 SWAP5 SWAP3 PUSH1 0x1 PUSH1 0x1 PUSH1 0x60 SHL SUB PUSH1 0x7 SWAP6 PUSH2 0xA64 PUSH1 0x1 PUSH1 0x1 PUSH1 0x40 SHL SUB PUSH1 0x98 SLOAD AND PUSH1 0x24 CALLDATALOAD PUSH2 0x1763 JUMP JUMPDEST SWAP5 PUSH1 0x1 PUSH1 0x1 PUSH1 0x40 SHL SUB PUSH2 0xA7A PUSH1 0x97 SLOAD DUP1 SWAP9 PUSH2 0x1776 JUMP JUMPDEST SWAP7 PUSH1 0x40 MLOAD SWAP3 PUSH2 0xA88 DUP5 PUSH2 0x170E JUMP JUMPDEST CALLER DUP5 MSTORE PUSH1 0x1 DUP1 PUSH1 0xA0 SHL SUB DUP8 AND DUP14 DUP6 ADD MSTORE PUSH1 0x1 DUP1 PUSH1 0xA0 SHL SUB AND PUSH1 0x40 DUP5 ADD MSTORE PUSH1 0x84 CALLDATALOAD PUSH1 0x60 DUP5 ADD MSTORE DUP8 PUSH1 0x80 DUP5 ADD MSTORE PUSH1 0x0 PUSH1 0xA0 DUP5 ADD MSTORE PUSH1 0x0 PUSH1 0xC0 DUP5 ADD MSTORE PUSH1 0x1 DUP1 PUSH1 0xA0 SHL SUB DUP10 AND PUSH1 0xE0 DUP5 ADD MSTORE AND PUSH2 0x100 DUP3 ADD MSTORE PUSH1 0x24 CALLDATALOAD PUSH2 0x120 DUP3 ADD MSTORE DUP9 PUSH1 0x0 MSTORE PUSH1 0xFF DUP11 MSTORE PUSH2 0x120 PUSH1 0x40 PUSH1 0x0 KECCAK256 SWAP2 PUSH1 0x1 DUP1 PUSH1 0xA0 SHL SUB DUP2 MLOAD AND DUP6 PUSH1 0xA0 SHL SWAP1 DUP2 DUP6 SLOAD AND OR DUP5 SSTORE PUSH1 0x1 DUP5 ADD PUSH1 0x1 DUP1 PUSH1 0xA0 SHL SUB DUP15 DUP5 ADD MLOAD AND DUP3 DUP3 SLOAD AND OR SWAP1 SSTORE PUSH1 0x2 DUP5 ADD SWAP1 PUSH1 0x1 DUP1 PUSH1 0xA0 SHL SUB PUSH1 0x40 DUP5 ADD MLOAD AND SWAP1 DUP3 SLOAD AND OR SWAP1 SSTORE PUSH1 0x60 DUP2 ADD MLOAD PUSH1 0x3 DUP5 ADD SSTORE PUSH1 0x80 DUP2 ADD MLOAD PUSH1 0x4 DUP5 ADD SSTORE PUSH1 0x5 DUP4 ADD PUSH1 0xA0 DUP3 ADD MLOAD ISZERO ISZERO DUP2 SLOAD PUSH2 0xFF00 PUSH1 0xC0 DUP6 ADD MLOAD ISZERO ISZERO PUSH1 0x8 SHL AND SWAP1 PUSH1 0xFF PUSH3 0x10000 PUSH1 0x1 PUSH1 0xB0 SHL SUB PUSH1 0xE0 DUP8 ADD MLOAD PUSH1 0x10 SHL AND SWAP4 AND SWAP1 PUSH10 0xFFFFFFFFFFFFFFFFFFFF PUSH1 0xB0 SHL AND OR OR OR SWAP1 SSTORE PUSH1 0x6 DUP4 ADD DUP6 PUSH2 0x100 DUP4 ADD MLOAD AND DUP7 NOT DUP3 SLOAD AND OR SWAP1 SSTORE ADD MLOAD SWAP8 DUP9 SWAP2 ADD SSTORE PUSH1 0x40 MLOAD SWAP5 DUP6 MSTORE DUP8 DUP10 DUP7 ADD MSTORE AND PUSH1 0x40 DUP5 ADD MSTORE PUSH1 0x80 PUSH1 0x60 DUP5 ADD MSTORE PUSH1 0xC4 CALLDATALOAD PUSH1 0x4 ADD CALLDATALOAD PUSH1 0x80 DUP5 ADD MSTORE PUSH1 0xC4 CALLDATALOAD PUSH1 0x4 ADD CALLDATALOAD PUSH1 0x24 PUSH1 0xC4 CALLDATALOAD ADD PUSH1 0xA0 DUP6 ADD CALLDATACOPY PUSH1 0x0 PUSH1 0x4 PUSH1 0xC4 CALLDATALOAD ADD CALLDATALOAD DUP5 DUP2 ADD PUSH1 0xA0 SWAP1 DUP2 ADD SWAP3 SWAP1 SWAP3 MSTORE PUSH1 0x1 PUSH1 0x1 PUSH1 0xA0 SHL SUB SWAP3 DUP4 AND SWAP6 SWAP1 SWAP3 AND SWAP4 PUSH1 0x1F SWAP1 SWAP3 ADD PUSH1 0x1F NOT AND DUP3 ADD DUP3 SWAP1 SUB ADD SWAP1 LOG4 PUSH1 0x40 MLOAD SWAP1 DUP2 MSTORE RETURN JUMPDEST PUSH3 0x461BCD PUSH1 0xE5 SHL PUSH1 0x80 DUP8 ADD SWAP1 DUP2 MSTORE PUSH1 0x20 PUSH1 0x84 DUP9 ADD MSTORE PUSH1 0x12 PUSH1 0xA4 DUP9 ADD MSTORE PUSH18 0x4F72646572416C7265616479457869737473 PUSH1 0x70 SHL PUSH1 0xC4 DUP9 ADD MSTORE PUSH1 0x64 SWAP1 REVERT JUMPDEST PUSH4 0x4E487B71 PUSH1 0xE0 SHL PUSH1 0x0 MSTORE PUSH1 0x41 PUSH1 0x4 MSTORE PUSH1 0x24 PUSH1 0x0 REVERT JUMPDEST PUSH2 0xC8B SWAP1 PUSH1 0x20 RETURNDATASIZE PUSH1 0x20 GT PUSH2 0x3FD JUMPI PUSH2 0x3EE DUP2 DUP4 PUSH2 0x172A JUMP JUMPDEST POP DUP5 PUSH2 0x98F JUMP JUMPDEST PUSH1 0x40 MLOAD PUSH3 0x461BCD PUSH1 0xE5 SHL DUP2 MSTORE PUSH1 0x20 PUSH1 0x4 DUP3 ADD MSTORE PUSH1 0x12 PUSH1 0x24 DUP3 ADD MSTORE PUSH18 0x92DCECC2D8D2C89ACAE6E6C2CECA90C2E6D PUSH1 0x73 SHL PUSH1 0x44 DUP3 ADD MSTORE PUSH1 0x64 SWAP1 REVERT JUMPDEST PUSH1 0x1 PUSH1 0x1 PUSH1 0xA0 SHL SUB DUP2 AND PUSH2 0x935 JUMPI PUSH1 0x40 MLOAD PUSH3 0x461BCD PUSH1 0xE5 SHL DUP2 MSTORE PUSH1 0x20 PUSH1 0x4 DUP3 ADD MSTORE PUSH1 0x19 PUSH1 0x24 DUP3 ADD MSTORE PUSH32 0x496E76616C696453656E646572466565526563697069656E7400000000000000 PUSH1 0x44 DUP3 ADD MSTORE PUSH1 0x64 SWAP1 REVERT JUMPDEST PUSH1 0x40 MLOAD PUSH3 0x461BCD PUSH1 0xE5 SHL DUP2 MSTORE PUSH1 0x20 PUSH1 0x4 DUP3 ADD MSTORE PUSH1 0x10 PUSH1 0x24 DUP3 ADD MSTORE PUSH16 0x5468726F775A65726F41646472657373 PUSH1 0x80 SHL PUSH1 0x44 DUP3 ADD MSTORE PUSH1 0x64 SWAP1 REVERT JUMPDEST PUSH1 0x40 MLOAD PUSH3 0x461BCD PUSH1 0xE5 SHL DUP2 MSTORE PUSH1 0x20 PUSH1 0x4 DUP3 ADD MSTORE PUSH1 0xC PUSH1 0x24 DUP3 ADD MSTORE PUSH12 0x416D6F756E7449735A65726F PUSH1 0xA0 SHL PUSH1 0x44 DUP3 ADD MSTORE PUSH1 0x64 SWAP1 REVERT JUMPDEST PUSH1 0x40 MLOAD PUSH3 0x461BCD PUSH1 0xE5 SHL DUP2 MSTORE PUSH1 0x20 PUSH1 0x4 DUP3 ADD MSTORE PUSH1 0x11 PUSH1 0x24 DUP3 ADD MSTORE PUSH17 0x151BDAD95B939BDD14DD5C1C1BDC9D1959 PUSH1 0x7A SHL PUSH1 0x44 DUP3 ADD MSTORE PUSH1 0x64 SWAP1 REVERT JUMPDEST CALLVALUE PUSH2 0x14F JUMPI PUSH1 0x0 CALLDATASIZE PUSH1 0x3 NOT ADD SLT PUSH2 0x14F JUMPI PUSH1 0x65 SLOAD CALLER PUSH1 0x1 PUSH1 0x1 PUSH1 0xA0 SHL SUB SWAP1 SWAP2 AND SUB PUSH2 0xDF4 JUMPI PUSH2 0xDF2 CALLER PUSH2 0x15B4 JUMP JUMPDEST STOP JUMPDEST PUSH1 0x40 MLOAD PUSH3 0x461BCD PUSH1 0xE5 SHL DUP2 MSTORE PUSH1 0x20 PUSH1 0x4 DUP3 ADD MSTORE PUSH1 0x29 PUSH1 0x24 DUP3 ADD MSTORE PUSH32 0x4F776E61626C6532537465703A2063616C6C6572206973206E6F742074686520 PUSH1 0x44 DUP3 ADD MSTORE PUSH9 0x3732BB9037BBB732B9 PUSH1 0xB9 SHL PUSH1 0x64 DUP3 ADD MSTORE PUSH1 0x84 SWAP1 REVERT JUMPDEST CALLVALUE PUSH2 0x14F JUMPI PUSH1 0x20 CALLDATASIZE PUSH1 0x3 NOT ADD SLT PUSH2 0x14F JUMPI PUSH1 0x0 PUSH2 0x120 PUSH1 0x40 MLOAD PUSH2 0xE6D DUP2 PUSH2 0x170E JUMP JUMPDEST DUP3 DUP2 MSTORE DUP3 PUSH1 0x20 DUP3 ADD MSTORE DUP3 PUSH1 0x40 DUP3 ADD MSTORE DUP3 PUSH1 0x60 DUP3 ADD MSTORE DUP3 PUSH1 0x80 DUP3 ADD MSTORE DUP3 PUSH1 0xA0 DUP3 ADD MSTORE DUP3 PUSH1 0xC0 DUP3 ADD MSTORE DUP3 PUSH1 0xE0 DUP3 ADD MSTORE DUP3 PUSH2 0x100 DUP3 ADD MSTORE ADD MSTORE PUSH1 0x4 CALLDATALOAD PUSH1 0x0 MSTORE PUSH1 0xFF PUSH1 0x20 MSTORE PUSH2 0x140 PUSH1 0x40 PUSH1 0x0 KECCAK256 PUSH2 0x120 PUSH1 0x40 MLOAD PUSH2 0xEC5 DUP2 PUSH2 0x170E JUMP JUMPDEST PUSH1 0x7 PUSH1 0x1 DUP1 PUSH1 0xA0 SHL SUB DUP5 SLOAD AND SWAP4 DUP5 DUP4 MSTORE PUSH1 0x1 DUP1 PUSH1 0xA0 SHL SUB PUSH1 0x1 DUP3 ADD SLOAD AND PUSH1 0x20 DUP5 ADD MSTORE PUSH1 0x1 DUP1 PUSH1 0xA0 SHL SUB PUSH1 0x2 DUP3 ADD SLOAD AND PUSH1 0x40 DUP5 ADD MSTORE PUSH1 0x3 DUP2 ADD SLOAD PUSH1 0x60 DUP5 ADD MSTORE PUSH1 0x4 DUP2 ADD SLOAD PUSH1 0x80 DUP5 ADD MSTORE PUSH1 0x5 DUP2 ADD SLOAD PUSH1 0xFF DUP2 AND ISZERO ISZERO PUSH1 0xA0 DUP6 ADD MSTORE PUSH1 0xFF DUP2 PUSH1 0x8 SHR AND ISZERO ISZERO PUSH1 0xC0 DUP6 ADD MSTORE PUSH1 0x1 DUP1 PUSH1 0xA0 SHL SUB SWAP1 PUSH1 0x10 SHR AND PUSH1 0xE0 DUP5 ADD MSTORE PUSH1 0x1 PUSH1 0x1 PUSH1 0x60 SHL SUB PUSH1 0x6 DUP3 ADD SLOAD AND PUSH2 0x100 DUP5 ADD MSTORE ADD SLOAD DUP3 DUP3 ADD MSTORE PUSH1 0x40 MLOAD SWAP3 DUP4 MSTORE PUSH1 0x1 DUP1 PUSH1 0xA0 SHL SUB PUSH1 0x20 DUP3 ADD MLOAD AND PUSH1 0x20 DUP5 ADD MSTORE PUSH1 0x1 DUP1 PUSH1 0xA0 SHL SUB PUSH1 0x40 DUP3 ADD MLOAD AND PUSH1 0x40 DUP5 ADD MSTORE PUSH1 0x60 DUP2 ADD MLOAD PUSH1 0x60 DUP5 ADD MSTORE PUSH1 0x80 DUP2 ADD MLOAD PUSH1 0x80 DUP5 ADD MSTORE PUSH1 0xA0 DUP2 ADD MLOAD ISZERO ISZERO PUSH1 0xA0 DUP5 ADD MSTORE PUSH1 0xC0 DUP2 ADD MLOAD ISZERO ISZERO PUSH1 0xC0 DUP5 ADD MSTORE PUSH1 0x1 DUP1 PUSH1 0xA0 SHL SUB PUSH1 0xE0 DUP3 ADD MLOAD AND PUSH1 0xE0 DUP5 ADD MSTORE PUSH1 0x1 PUSH1 0x1 PUSH1 0x60 SHL SUB PUSH2 0x100 DUP3 ADD MLOAD AND PUSH2 0x100 DUP5 ADD MSTORE ADD MLOAD PUSH2 0x120 DUP3 ADD MSTORE RETURN JUMPDEST CALLVALUE PUSH2 0x14F JUMPI PUSH1 0x20 CALLDATASIZE PUSH1 0x3 NOT ADD SLT PUSH2 0x14F JUMPI PUSH1 0x20 PUSH2 0x1000 PUSH2 0xFFB PUSH2 0x159E JUMP JUMPDEST PUSH2 0x1859 JUMP JUMPDEST PUSH1 0x40 MLOAD SWAP1 ISZERO ISZERO DUP2 MSTORE RETURN JUMPDEST CALLVALUE PUSH2 0x14F JUMPI PUSH1 0x40 CALLDATASIZE PUSH1 0x3 NOT ADD SLT PUSH2 0x14F JUMPI PUSH1 0x4 CALLDATALOAD PUSH1 0x24 CALLDATALOAD PUSH1 0x1 DUP1 PUSH1 0xA0 SHL SUB PUSH2 0x1037 DUP2 PUSH1 0x99 SLOAD AND CALLER EQ PUSH2 0x1796 JUMP JUMPDEST DUP2 PUSH1 0x0 MSTORE PUSH1 0xFF SWAP3 PUSH1 0x20 SWAP4 DUP1 DUP6 MSTORE PUSH2 0x1058 DUP2 PUSH1 0x5 PUSH1 0x40 PUSH1 0x0 KECCAK256 ADD SLOAD AND ISZERO PUSH2 0x17D3 JUMP JUMPDEST DUP4 PUSH1 0x0 MSTORE DUP1 DUP6 MSTORE PUSH2 0x1076 DUP2 PUSH1 0x5 PUSH1 0x40 PUSH1 0x0 KECCAK256 ADD SLOAD PUSH1 0x8 SHR AND ISZERO PUSH2 0x1810 JUMP JUMPDEST DUP4 PUSH1 0x0 MSTORE DUP1 DUP6 MSTORE DUP2 PUSH1 0x4 PUSH1 0x40 PUSH1 0x0 KECCAK256 ADD SLOAD LT PUSH2 0x1218 JUMPI DUP5 SWAP1 DUP3 PUSH2 0x1197 JUMPI JUMPDEST PUSH2 0x1135 SWAP4 DUP6 PUSH1 0x0 MSTORE DUP2 DUP4 MSTORE PUSH2 0x10D4 DUP5 PUSH1 0x7 PUSH1 0x40 PUSH1 0x0 KECCAK256 PUSH1 0x5 DUP2 ADD PUSH2 0x100 PUSH2 0xFF00 NOT DUP3 SLOAD AND OR SWAP1 SSTORE PUSH1 0x6 DUP2 ADD PUSH1 0x1 PUSH1 0x1 PUSH1 0x60 SHL SUB NOT DUP2 SLOAD AND SWAP1 SSTORE ADD SLOAD PUSH2 0x184C JUMP JUMPDEST SWAP2 DUP7 PUSH1 0x0 MSTORE DUP4 MSTORE PUSH2 0x1100 PUSH1 0x40 PUSH1 0x0 KECCAK256 SWAP3 PUSH1 0x3 DUP4 PUSH1 0x1 DUP7 ADD SLOAD AND SWAP4 PUSH1 0x5 DUP7 ADD SLOAD PUSH1 0x10 SHR AND SWAP5 ADD SLOAD SWAP1 PUSH2 0x1701 JUMP JUMPDEST PUSH1 0x40 MLOAD PUSH4 0xA9059CBB PUSH1 0xE0 SHL DUP2 MSTORE PUSH1 0x1 PUSH1 0x1 PUSH1 0xA0 SHL SUB SWAP1 SWAP4 AND PUSH1 0x4 DUP5 ADD MSTORE PUSH1 0x24 DUP4 ADD MSTORE SWAP1 SWAP4 DUP5 SWAP2 SWAP1 DUP3 SWAP1 PUSH1 0x0 SWAP1 DUP3 SWAP1 PUSH1 0x44 DUP3 ADD SWAP1 JUMP JUMPDEST SUB SWAP3 GAS CALL SWAP1 DUP2 ISZERO PUSH2 0x404 JUMPI PUSH32 0x736FE428E1747CA8D387C2E6FA1A31A0CDE62D3A167C40A46ADE59A3CDC828E SWAP3 DUP6 SWAP3 PUSH2 0x117A JUMPI JUMPDEST POP PUSH1 0x40 MLOAD SWAP1 DUP2 MSTORE LOG2 PUSH1 0x40 MLOAD PUSH1 0x1 DUP2 MSTORE RETURN JUMPDEST PUSH2 0x1190 SWAP1 DUP4 RETURNDATASIZE DUP6 GT PUSH2 0x3FD JUMPI PUSH2 0x3EE DUP2 DUP4 PUSH2 0x172A JUMP JUMPDEST POP DUP6 PUSH2 0x1169 JUMP JUMPDEST PUSH1 0x0 DUP6 DUP2 MSTORE DUP2 DUP8 MSTORE PUSH1 0x40 DUP1 DUP3 KECCAK256 PUSH1 0x1 ADD SLOAD PUSH1 0x98 SLOAD DUP3 MLOAD PUSH4 0xA9059CBB PUSH1 0xE0 SHL DUP2 MSTORE SWAP3 SHR DUP8 AND PUSH1 0x1 PUSH1 0x1 PUSH1 0xA0 SHL SUB AND PUSH1 0x4 DUP4 ADD MSTORE PUSH1 0x24 DUP3 ADD DUP7 SWAP1 MSTORE SWAP1 SWAP6 SWAP4 POP DUP8 SWAP2 DUP7 SWAP2 PUSH1 0x44 SWAP2 DUP4 SWAP2 DUP8 AND GAS CALL SWAP2 DUP3 ISZERO PUSH2 0x404 JUMPI PUSH2 0x1135 SWAP5 DUP8 SWAP4 PUSH2 0x11FB JUMPI JUMPDEST POP SWAP4 POP PUSH2 0x1094 JUMP JUMPDEST PUSH2 0x1211 SWAP1 DUP5 RETURNDATASIZE DUP7 GT PUSH2 0x3FD JUMPI PUSH2 0x3EE DUP2 DUP4 PUSH2 0x172A JUMP JUMPDEST POP DUP8 PUSH2 0x11F3 JUMP JUMPDEST PUSH1 0x40 MLOAD PUSH3 0x461BCD PUSH1 0xE5 SHL DUP2 MSTORE PUSH1 0x4 DUP2 ADD DUP7 SWAP1 MSTORE PUSH1 0x15 PUSH1 0x24 DUP3 ADD MSTORE PUSH21 0x4665654578636565647350726F746F636F6C466565 PUSH1 0x58 SHL PUSH1 0x44 DUP3 ADD MSTORE PUSH1 0x64 SWAP1 REVERT JUMPDEST CALLVALUE PUSH2 0x14F JUMPI PUSH1 0x0 CALLDATASIZE PUSH1 0x3 NOT ADD SLT PUSH2 0x14F JUMPI PUSH2 0x126E PUSH2 0x1605 JUMP JUMPDEST PUSH1 0x65 DUP1 SLOAD PUSH1 0x1 PUSH1 0x1 PUSH1 0xA0 SHL SUB NOT SWAP1 DUP2 AND SWAP1 SWAP2 SSTORE PUSH1 0x33 DUP1 SLOAD SWAP2 DUP3 AND SWAP1 SSTORE PUSH1 0x0 SWAP1 PUSH1 0x1 PUSH1 0x1 PUSH1 0xA0 SHL SUB AND PUSH32 0x8BE0079C531659141344CD1FD0A4F28419497F9722A3DAAFE3B4186F6B6457E0 DUP3 DUP1 LOG3 STOP JUMPDEST CALLVALUE PUSH2 0x14F JUMPI PUSH1 0x0 CALLDATASIZE PUSH1 0x3 NOT ADD SLT PUSH2 0x14F JUMPI PUSH1 0x20 PUSH1 0xFF PUSH1 0xCD SLOAD AND PUSH1 0x40 MLOAD SWAP1 ISZERO ISZERO DUP2 MSTORE RETURN JUMPDEST CALLVALUE PUSH2 0x14F JUMPI PUSH1 0x20 CALLDATASIZE PUSH1 0x3 NOT ADD SLT PUSH2 0x14F JUMPI PUSH1 0x4 CALLDATALOAD PUSH1 0x1 PUSH1 0x1 PUSH1 0x40 SHL SUB DUP2 AND DUP1 SWAP2 SUB PUSH2 0x14F JUMPI PUSH1 0x20 PUSH32 0x1CE29A697A4765BD17D91DF93BA75B250B629ECF030553FF1F6AB59F15AE6C7B SWAP2 PUSH2 0x1330 PUSH2 0x1605 JUMP JUMPDEST DUP1 PUSH1 0x1 PUSH1 0x1 PUSH1 0x40 SHL SUB NOT PUSH1 0x98 SLOAD AND OR PUSH1 0x98 SSTORE PUSH1 0x40 MLOAD SWAP1 DUP2 MSTORE LOG1 STOP JUMPDEST CALLVALUE PUSH2 0x14F JUMPI PUSH1 0x40 CALLDATASIZE PUSH1 0x3 NOT ADD SLT PUSH2 0x14F JUMPI PUSH1 0x4 CALLDATALOAD PUSH2 0x1367 PUSH2 0x1588 JUMP JUMPDEST SWAP1 PUSH2 0x1370 PUSH2 0x1605 JUMP JUMPDEST PUSH1 0x1 PUSH1 0x1 PUSH1 0xA0 SHL SUB DUP3 DUP2 AND SWAP3 PUSH2 0x1387 DUP5 ISZERO ISZERO PUSH2 0x1882 JUMP JUMPDEST PUSH1 0x0 PUSH8 0x7472656173757279 PUSH1 0xC0 SHL DUP5 SUB PUSH2 0x145D JUMPI POP DUP4 PUSH1 0x98 SLOAD SWAP3 DUP4 PUSH1 0x40 SHR AND EQ PUSH2 0x140A JUMPI PUSH9 0x10000000000000000 PUSH1 0x1 PUSH1 0xE0 SHL SUB NOT SWAP1 SWAP2 AND PUSH1 0x40 SWAP2 SWAP1 SWAP2 SHL PUSH9 0x10000000000000000 PUSH1 0x1 PUSH1 0xE0 SHL SUB AND OR PUSH1 0x98 SSTORE PUSH1 0x1 JUMPDEST PUSH2 0x13E3 JUMPI STOP JUMPDEST PUSH32 0xBBC5B96E57CFECB3DBEEADF92E87F15E58E64FCD75CBE256DCC5D9EF2E51E8A4 PUSH1 0x0 DUP1 LOG3 STOP JUMPDEST PUSH1 0x40 MLOAD PUSH3 0x461BCD PUSH1 0xE5 SHL DUP2 MSTORE PUSH1 0x20 PUSH1 0x4 DUP3 ADD MSTORE PUSH1 0x25 PUSH1 0x24 DUP3 ADD MSTORE PUSH32 0x476174657761793A207472656173757279206164647265737320616C72656164 PUSH1 0x44 DUP3 ADD MSTORE PUSH5 0x1E481CD95D PUSH1 0xDA SHL PUSH1 0x64 DUP3 ADD MSTORE PUSH1 0x84 SWAP1 REVERT JUMPDEST SWAP2 SWAP1 POP PUSH10 0x30B3B3B932B3B0BA37B9 PUSH1 0xB1 SHL DUP4 EQ PUSH2 0x147B JUMPI JUMPDEST POP PUSH2 0x13DD JUMP JUMPDEST PUSH1 0x99 SLOAD SWAP2 POP DUP2 AND DUP4 EQ PUSH2 0x149F JUMPI PUSH1 0x1 PUSH1 0x1 PUSH1 0xA0 SHL SUB NOT AND DUP3 OR PUSH1 0x99 SSTORE PUSH1 0x1 DUP4 PUSH2 0x1475 JUMP JUMPDEST PUSH1 0x40 MLOAD PUSH3 0x461BCD PUSH1 0xE5 SHL DUP2 MSTORE PUSH1 0x20 PUSH1 0x4 DUP3 ADD MSTORE PUSH1 0x27 PUSH1 0x24 DUP3 ADD MSTORE PUSH32 0x476174657761793A2061676772656761746F72206164647265737320616C7265 PUSH1 0x44 DUP3 ADD MSTORE PUSH7 0x18591E481CD95D PUSH1 0xCA SHL PUSH1 0x64 DUP3 ADD MSTORE PUSH1 0x84 SWAP1 REVERT JUMPDEST CALLVALUE PUSH2 0x14F JUMPI PUSH1 0x0 CALLDATASIZE PUSH1 0x3 NOT ADD SLT PUSH2 0x14F JUMPI PUSH2 0x150D PUSH2 0x1605 JUMP JUMPDEST PUSH1 0xCD SLOAD PUSH1 0xFF DUP2 AND ISZERO PUSH2 0x154C JUMPI PUSH1 0xFF NOT AND PUSH1 0xCD SSTORE PUSH32 0x5DB9EE0A495BF2E6FF9C91A7834C1BA4FDD244A5E8AA4E537BD38AEAE4B073AA PUSH1 0x20 PUSH1 0x40 MLOAD CALLER DUP2 MSTORE LOG1 STOP JUMPDEST PUSH1 0x40 MLOAD PUSH3 0x461BCD PUSH1 0xE5 SHL DUP2 MSTORE PUSH1 0x20 PUSH1 0x4 DUP3 ADD MSTORE PUSH1 0x14 PUSH1 0x24 DUP3 ADD MSTORE PUSH20 0x14185D5CD8589B194E881B9BDD081C185D5CD959 PUSH1 0x62 SHL PUSH1 0x44 DUP3 ADD MSTORE PUSH1 0x64 SWAP1 REVERT JUMPDEST PUSH1 0x24 CALLDATALOAD SWAP1 PUSH1 0x1 PUSH1 0x1 PUSH1 0xA0 SHL SUB DUP3 AND DUP3 SUB PUSH2 0x14F JUMPI JUMP JUMPDEST PUSH1 0x4 CALLDATALOAD SWAP1 PUSH1 0x1 PUSH1 0x1 PUSH1 0xA0 SHL SUB DUP3 AND DUP3 SUB PUSH2 0x14F JUMPI JUMP JUMPDEST PUSH1 0x1 PUSH1 0x1 PUSH1 0x60 SHL SUB PUSH1 0xA0 SHL SWAP1 DUP2 PUSH1 0x65 SLOAD AND PUSH1 0x65 SSTORE PUSH1 0x33 SLOAD PUSH1 0x1 DUP1 PUSH1 0xA0 SHL SUB DUP1 SWAP3 AND DUP1 SWAP4 DUP3 AND OR PUSH1 0x33 SSTORE AND PUSH32 0x8BE0079C531659141344CD1FD0A4F28419497F9722A3DAAFE3B4186F6B6457E0 PUSH1 0x0 DUP1 LOG3 JUMP JUMPDEST PUSH1 0x33 SLOAD PUSH1 0x1 PUSH1 0x1 PUSH1 0xA0 SHL SUB AND CALLER SUB PUSH2 0x1619 JUMPI JUMP JUMPDEST PUSH1 0x64 PUSH1 0x40 MLOAD PUSH3 0x461BCD PUSH1 0xE5 SHL DUP2 MSTORE PUSH1 0x20 PUSH1 0x4 DUP3 ADD MSTORE PUSH1 0x20 PUSH1 0x24 DUP3 ADD MSTORE PUSH32 0x4F776E61626C653A2063616C6C6572206973206E6F7420746865206F776E6572 PUSH1 0x44 DUP3 ADD MSTORE REVERT JUMPDEST ISZERO PUSH2 0x1664 JUMPI JUMP JUMPDEST PUSH1 0x40 MLOAD PUSH3 0x461BCD PUSH1 0xE5 SHL DUP2 MSTORE PUSH1 0x20 PUSH1 0x4 DUP3 ADD MSTORE PUSH1 0x2B PUSH1 0x24 DUP3 ADD MSTORE PUSH32 0x496E697469616C697A61626C653A20636F6E7472616374206973206E6F742069 PUSH1 0x44 DUP3 ADD MSTORE PUSH11 0x6E697469616C697A696E67 PUSH1 0xA8 SHL PUSH1 0x64 DUP3 ADD MSTORE PUSH1 0x84 SWAP1 REVERT JUMPDEST PUSH1 0xFF PUSH1 0xCD SLOAD AND PUSH2 0x16C9 JUMPI JUMP JUMPDEST PUSH1 0x40 MLOAD PUSH3 0x461BCD PUSH1 0xE5 SHL DUP2 MSTORE PUSH1 0x20 PUSH1 0x4 DUP3 ADD MSTORE PUSH1 0x10 PUSH1 0x24 DUP3 ADD MSTORE PUSH16 0x14185D5CD8589B194E881C185D5CD959 PUSH1 0x82 SHL PUSH1 0x44 DUP3 ADD MSTORE PUSH1 0x64 SWAP1 REVERT JUMPDEST SWAP2 SWAP1 DUP3 ADD DUP1 SWAP3 GT PUSH2 0x519 JUMPI JUMP JUMPDEST PUSH2 0x140 DUP2 ADD SWAP1 DUP2 LT PUSH1 0x1 PUSH1 0x1 PUSH1 0x40 SHL SUB DUP3 GT OR PUSH2 0xC5D JUMPI PUSH1 0x40 MSTORE JUMP JUMPDEST SWAP1 PUSH1 0x1F DUP1 NOT SWAP2 ADD AND DUP2 ADD SWAP1 DUP2 LT PUSH1 0x1 PUSH1 0x1 PUSH1 0x40 SHL SUB DUP3 GT OR PUSH2 0xC5D JUMPI PUSH1 0x40 MSTORE JUMP JUMPDEST SWAP1 DUP2 PUSH1 0x20 SWAP2 SUB SLT PUSH2 0x14F JUMPI MLOAD DUP1 ISZERO ISZERO DUP2 SUB PUSH2 0x14F JUMPI SWAP1 JUMP JUMPDEST DUP2 DUP2 MUL SWAP3 SWAP2 DUP2 ISZERO SWAP2 DUP5 DIV EQ OR ISZERO PUSH2 0x519 JUMPI JUMP JUMPDEST DUP2 ISZERO PUSH2 0x1780 JUMPI DIV SWAP1 JUMP JUMPDEST PUSH4 0x4E487B71 PUSH1 0xE0 SHL PUSH1 0x0 MSTORE PUSH1 0x12 PUSH1 0x4 MSTORE PUSH1 0x24 PUSH1 0x0 REVERT JUMPDEST ISZERO PUSH2 0x179D JUMPI JUMP JUMPDEST PUSH1 0x40 MLOAD PUSH3 0x461BCD PUSH1 0xE5 SHL DUP2 MSTORE PUSH1 0x20 PUSH1 0x4 DUP3 ADD MSTORE PUSH1 0xE PUSH1 0x24 DUP3 ADD MSTORE PUSH14 0x27B7363CA0B3B3B932B3B0BA37B9 PUSH1 0x91 SHL PUSH1 0x44 DUP3 ADD MSTORE PUSH1 0x64 SWAP1 REVERT JUMPDEST ISZERO PUSH2 0x17DA JUMPI JUMP JUMPDEST PUSH1 0x40 MLOAD PUSH3 0x461BCD PUSH1 0xE5 SHL DUP2 MSTORE PUSH1 0x20 PUSH1 0x4 DUP3 ADD MSTORE PUSH1 0xE PUSH1 0x24 DUP3 ADD MSTORE PUSH14 0x13DC99195C919D5B199A5B1B1959 PUSH1 0x92 SHL PUSH1 0x44 DUP3 ADD MSTORE PUSH1 0x64 SWAP1 REVERT JUMPDEST ISZERO PUSH2 0x1817 JUMPI JUMP JUMPDEST PUSH1 0x40 MLOAD PUSH3 0x461BCD PUSH1 0xE5 SHL DUP2 MSTORE PUSH1 0x20 PUSH1 0x4 DUP3 ADD MSTORE PUSH1 0xD PUSH1 0x24 DUP3 ADD MSTORE PUSH13 0x13DC99195C9499599D5B991959 PUSH1 0x9A SHL PUSH1 0x44 DUP3 ADD MSTORE PUSH1 0x64 SWAP1 REVERT JUMPDEST SWAP2 SWAP1 DUP3 SUB SWAP2 DUP3 GT PUSH2 0x519 JUMPI JUMP JUMPDEST PUSH1 0x1 PUSH1 0x1 PUSH1 0xA0 SHL SUB AND PUSH1 0x0 SWAP1 DUP2 MSTORE PUSH1 0x9A PUSH1 0x20 MSTORE PUSH1 0x40 SWAP1 KECCAK256 SLOAD PUSH1 0x1 EQ PUSH2 0x187D JUMPI PUSH1 0x0 SWAP1 JUMP JUMPDEST PUSH1 0x1 SWAP1 JUMP JUMPDEST ISZERO PUSH2 0x1889 JUMPI JUMP JUMPDEST PUSH1 0x40 MLOAD PUSH3 0x461BCD PUSH1 0xE5 SHL DUP2 MSTORE PUSH1 0x20 PUSH1 0x4 DUP3 ADD MSTORE PUSH1 0x15 PUSH1 0x24 DUP3 ADD MSTORE PUSH21 0x476174657761793A207A65726F2061646472657373 PUSH1 0x58 SHL PUSH1 0x44 DUP3 ADD MSTORE PUSH1 0x64 SWAP1 REVERT INVALID LOG2 PUSH5 0x6970667358 0x22 SLT KECCAK256 CALL SAR MSIZE 0xD1 0x4E SIGNEXTEND 0x23 GAS 0xCB 0xB7 PUSH19 0x6948777C4EE61DF24DF9424AC128E686ADB93 REVERT PUSH21 0x64736F6C6343000814003300000000000000000000 "},"gasEstimates":{"creation":{"codeDepositCost":"1279200","executionCost":"26671","totalCost":"1305871"},"external":{"acceptOwnership()":"52463","createOrder(address,uint256,uint96,address,uint256,address,string)":"infinite","getFeeDetails()":"4672","getOrderInfo(bytes32)":"infinite","initialize()":"infinite","isTokenSupported(address)":"2595","owner()":"2538","pause()":"29927","paused()":"2328","pendingOwner()":"2604","refund(uint256,bytes32)":"infinite","renounceOwnership()":"52364","settingManagerBool(bytes32,address,uint256)":"26807","settle(bytes32,bytes32,address,uint64)":"infinite","transferOwnership(address)":"30617","unpause()":"27558","updateProtocolAddress(bytes32,address)":"28353","updateProtocolFee(uint64)":"27648"},"internal":{"_handler(address,uint256,address,address,uint256)":"infinite"}},"methodIdentifiers":{"acceptOwnership()":"79ba5097","createOrder(address,uint256,uint96,address,uint256,address,string)":"809804f7","getFeeDetails()":"b810c636","getOrderInfo(bytes32)":"768c6ec0","initialize()":"8129fc1c","isTokenSupported(address)":"75151b63","owner()":"8da5cb5b","pause()":"8456cb59","paused()":"5c975abb","pendingOwner()":"e30c3978","refund(uint256,bytes32)":"71eedb88","renounceOwnership()":"715018a6","settingManagerBool(bytes32,address,uint256)":"cd992400","settle(bytes32,bytes32,address,uint64)":"f22ee704","transferOwnership(address)":"f2fde38b","unpause()":"3f4ba83a","updateProtocolAddress(bytes32,address)":"40ebc677","updateProtocolFee(uint64)":"47094e2e"}},"storageLayout":{"storage":[{"astId":246,"contract":"contracts/Gateway.sol:Gateway","label":"_initialized","offset":0,"slot":"0","type":"t_uint8"},{"astId":249,"contract":"contracts/Gateway.sol:Gateway","label":"_initializing","offset":1,"slot":"0","type":"t_bool"},{"astId":916,"contract":"contracts/Gateway.sol:Gateway","label":"__gap","offset":0,"slot":"1","type":"t_array(t_uint256)50_storage"},{"astId":118,"contract":"contracts/Gateway.sol:Gateway","label":"_owner","offset":0,"slot":"51","type":"t_address"},{"astId":238,"contract":"contracts/Gateway.sol:Gateway","label":"__gap","offset":0,"slot":"52","type":"t_array(t_uint256)49_storage"},{"astId":11,"contract":"contracts/Gateway.sol:Gateway","label":"_pendingOwner","offset":0,"slot":"101","type":"t_address"},{"astId":105,"contract":"contracts/Gateway.sol:Gateway","label":"__gap","offset":0,"slot":"102","type":"t_array(t_uint256)49_storage"},{"astId":2243,"contract":"contracts/Gateway.sol:Gateway","label":"MAX_BPS","offset":0,"slot":"151","type":"t_uint256"},{"astId":2245,"contract":"contracts/Gateway.sol:Gateway","label":"protocolFeePercent","offset":0,"slot":"152","type":"t_uint64"},{"astId":2247,"contract":"contracts/Gateway.sol:Gateway","label":"treasuryAddress","offset":8,"slot":"152","type":"t_address"},{"astId":2249,"contract":"contracts/Gateway.sol:Gateway","label":"_aggregatorAddress","offset":0,"slot":"153","type":"t_address"},{"astId":2253,"contract":"contracts/Gateway.sol:Gateway","label":"_isTokenSupported","offset":0,"slot":"154","type":"t_mapping(t_address,t_uint256)"},{"astId":2257,"contract":"contracts/Gateway.sol:Gateway","label":"__gap","offset":0,"slot":"155","type":"t_array(t_uint256)50_storage"},{"astId":430,"contract":"contracts/Gateway.sol:Gateway","label":"_paused","offset":0,"slot":"205","type":"t_bool"},{"astId":535,"contract":"contracts/Gateway.sol:Gateway","label":"__gap","offset":0,"slot":"206","type":"t_array(t_uint256)49_storage"},{"astId":1662,"contract":"contracts/Gateway.sol:Gateway","label":"order","offset":0,"slot":"255","type":"t_mapping(t_bytes32,t_struct(Order)2505_storage)"},{"astId":1666,"contract":"contracts/Gateway.sol:Gateway","label":"_nonce","offset":0,"slot":"256","type":"t_mapping(t_address,t_uint256)"},{"astId":1670,"contract":"contracts/Gateway.sol:Gateway","label":"__gap","offset":0,"slot":"257","type":"t_array(t_uint256)50_storage"}],"types":{"t_address":{"encoding":"inplace","label":"address","numberOfBytes":"20"},"t_array(t_uint256)49_storage":{"base":"t_uint256","encoding":"inplace","label":"uint256[49]","numberOfBytes":"1568"},"t_array(t_uint256)50_storage":{"base":"t_uint256","encoding":"inplace","label":"uint256[50]","numberOfBytes":"1600"},"t_bool":{"encoding":"inplace","label":"bool","numberOfBytes":"1"},"t_bytes32":{"encoding":"inplace","label":"bytes32","numberOfBytes":"32"},"t_mapping(t_address,t_uint256)":{"encoding":"mapping","key":"t_address","label":"mapping(address => uint256)","numberOfBytes":"32","value":"t_uint256"},"t_mapping(t_bytes32,t_struct(Order)2505_storage)":{"encoding":"mapping","key":"t_bytes32","label":"mapping(bytes32 => struct IGateway.Order)","numberOfBytes":"32","value":"t_struct(Order)2505_storage"},"t_struct(Order)2505_storage":{"encoding":"inplace","label":"struct IGateway.Order","members":[{"astId":2486,"contract":"contracts/Gateway.sol:Gateway","label":"sender","offset":0,"slot":"0","type":"t_address"},{"astId":2488,"contract":"contracts/Gateway.sol:Gateway","label":"token","offset":0,"slot":"1","type":"t_address"},{"astId":2490,"contract":"contracts/Gateway.sol:Gateway","label":"senderFeeRecipient","offset":0,"slot":"2","type":"t_address"},{"astId":2492,"contract":"contracts/Gateway.sol:Gateway","label":"senderFee","offset":0,"slot":"3","type":"t_uint256"},{"astId":2494,"contract":"contracts/Gateway.sol:Gateway","label":"protocolFee","offset":0,"slot":"4","type":"t_uint256"},{"astId":2496,"contract":"contracts/Gateway.sol:Gateway","label":"isFulfilled","offset":0,"slot":"5","type":"t_bool"},{"astId":2498,"contract":"contracts/Gateway.sol:Gateway","label":"isRefunded","offset":1,"slot":"5","type":"t_bool"},{"astId":2500,"contract":"contracts/Gateway.sol:Gateway","label":"refundAddress","offset":2,"slot":"5","type":"t_address"},{"astId":2502,"contract":"contracts/Gateway.sol:Gateway","label":"currentBPS","offset":0,"slot":"6","type":"t_uint96"},{"astId":2504,"contract":"contracts/Gateway.sol:Gateway","label":"amount","offset":0,"slot":"7","type":"t_uint256"}],"numberOfBytes":"256"},"t_uint256":{"encoding":"inplace","label":"uint256","numberOfBytes":"32"},"t_uint64":{"encoding":"inplace","label":"uint64","numberOfBytes":"8"},"t_uint8":{"encoding":"inplace","label":"uint8","numberOfBytes":"1"},"t_uint96":{"encoding":"inplace","label":"uint96","numberOfBytes":"12"}}},"userdoc":{"kind":"user","methods":{},"notice":"This contract serves as a gateway for creating orders and managing settlements.","version":1}}}}